:100000000A128A11E62F83160313081083120313B2
:1000100008140800F7000A128A15DD250A128A1151
:100020005439F60077088400831380015430760633
:10003000031D1B281C281E2802305328F8014C28B9
:1000400078080A128A15BE260A128A117605031D3F
:100050002A282B28482878080A128A1585260A1289
:100060008A11013EFF00770884007F088313800017
:1000700078080A128A15A1260A128A11F300F401DF
:100080002C300A128A1533270A128A11003053289D
:100090000130FF007F08F80703307802031C512865
:1000A000522820281C28080083120313AE000430B5
:1000B000AF002E1C5C285D2871282908F1002A0851
:1000C000F2002B08F3002C08F4002D08F500903006
:1000D0000A128A1171240A128A1183120313AF01C2
:1000E0008628AE1C7428752886282908F1002A085D
:1000F000F2002B08F3002C08F4002D08F5009430D2
:100100000A128A1171240A128A116D282F08031D00
:100110008A288B28A2282B08840083130008E30078
:100120002A0884000008E400290884000008DF0091
:10013000840A0008E000840A0008E100840A00083C
:10014000E200A6282C088400831380012F080800F1
:10015000F4008316031394018312031394017408AB
:10016000FF007F0894047118B628B928831603137A
:100170009417CF2883160313141783120313141232
:10018000EE28831603131417831203131416EE2894
:10019000831603131413831203131416EE28700826
:1001A000F200F3017308003A0319D728EE28720809
:1001B000003A0319BA28023A0319C128013A03196F
:1001C000C828EE2883160313851683160313871594
:1001D0009413FE28831603138711FE287408F20077
:1001E000F3017308003A0319F628EA287208043A62
:1001F0000319E228013A0319E528EA2887120716AD
:100200008312031394160800FC000A128A156C2549
:100210000A128A11203A031D0E290F295129203074
:100220007C0603191429152951292B300A128A1525
:100230006A260A128A114039FD007D08031D212912
:1002400022292C294030F3004030F4002B300A12D0
:100250008A1533270A128A114030F3004030F40027
:100260002C300A128A1533270A128A1160300A12BA
:100270008A1583270A128A11003A03194029412955
:100280004329013060297D08031D47294829512948
:100290004030F300F4012B300A128A1533270A127A
:1002A0008A114030F300F4012C300A128A153327EA
:1002B0000A128A117C080A128A1583270A128A11E7
:1002C0000800F9007108FB007008FA007903031DAB
:1002D0006A296B29B3297408033E84007A088313C2
:1002E00080007408023E84007B0880007008F500DE
:1002F0007108F6007208F7007308F8001030031058
:10030000F80CF70CF60CF50CFF3E031D7F29760860
:10031000FB007508FA00740A84007A08033980002B
:100320007A081C39F50002300310F50DFF3E031D5D
:1003300094290310750DFF00740A84007F0880075C
:10034000740A84008015740884007B08F6007A081B
:10035000F50005300310F60CF50CFF3E031DAA292D
:1003600075088000DB29740884007B08F6007A0891
:10037000F5000310F60CF50C0310F60CF50C031049
:10038000F60CF50C750883138000740A84007A0853
:100390000739F50004300310F50DFF3E031DCB298E
:1003A0000310750D80007408033E840080017408FA
:1003B000023E84008001080083120313B00030085D
:1003C0000A128A15F8260A128A1183120313AA0048
:1003D0002508031DEC29ED29F029A801A901F4291C
:1003E0004030A8000030A90026082804AB002308EC
:1003F000F3002208F2002108F1002008F0002C3060
:10040000F40024080A128A1161210A128A11831247
:10041000031308102A080A128A1594250A128A1151
:1004200083120313B10131082C3E840083130008AA
:100430000A128A1594250A128A110130FF007F08DA
:1004400083120313B10704303102031C282A292A1E
:10045000132A2B080A128A1594250A128A1183126C
:100460000313B101452A31082707FC007C088400EA
:10047000831300080A128A1594250A128A11013082
:10048000FF007F0883120313B10726083102031807
:100490004A2A4B2A512A08303102031C502A512A79
:1004A000332A081430080A128A15B7250A128A114D
:1004B000080083120313A4000A128A15F1250A12F8
:1004C0008A1180300A128A1104210A128A118312B9
:1004D0000313A500250803196E2A6F2A7E2A4130CE
:1004E00083120313A300ED30A200A20B752AA30B05
:1004F000752A7A2A831203132508E82A41308312C9
:100500000313A300ED30A200A20B842AA30B842ABC
:10051000892A831203132108F30024080A128A117E
:10052000B9250A128A11003A0319972A982A992A9A
:100530006F2A413083120313A300ED30A200A20BF7
:100540009F2AA30B9F2AA42A831203132508031DA5
:10055000AA2AAB2AE52A0A128A15BF270A128A118B
:100560000330F1002B300A128A1536260A128A113E
:100570006430F3000430F40060300A128A15332727
:100580000A128A116030F300F40170300A128A15E1
:1005900033270A128A1100300A128A15A5250A1279
:1005A0008A1183120313A50025080319D82AD92A12
:1005B000DA2A6F2A413083120313A300ED30A20020
:1005C000A20BE02AA30BE02AE52A831203132508D5
:1005D000080083120313C001C1013508E20034088A
:1005E000E1003308E0003208DF003608E400370895
:1005F000E300400841040319FE2AFF2A0A2B413078
:1006000083120313BC00ED30BB00BB0B052BBC0BEE
:10061000052B0A2B3F300A128A110A200A128A116E
:1006200083120313BD000130C0070318C10A003054
:10063000C10702303D06031D1E2B1F2B282B003047
:100640004102323003194002031C272B282BF92AC0
:10065000323040064104031D2E2B2F2B312B063048
:100660008E2B3508A3003408A2003308A1003208FD
:10067000A0003608A4003708A5003808A6003908ED
:10068000A7003F080A128A11DC210A128A1183127C
:1006900003133A0803194D2B4E2B8D2BC001C101BA
:1006A000400841040319552B562B612B413083120E
:1006B0000313BC00ED30BB00BB0B5C2BBC0B5C2BF5
:1006C000612B013083120313C0070318C10A0030E5
:1006D000C1073F08FF3E0A128A156A260A128A11CC
:1006E00083120313BE003E080839BE003E080319FA
:1006F0007A2B7B2B842B00304102323003194002CD
:10070000031C832B842B502B323040064104031DE5
:100710008A2B8B2B8D2B07308E2B003008008316F5
:10072000031388118312031388110A128A110320FC
:100730000A128A11A92B033083120313CD008A30C9
:10074000CC005530CB00CB0BA32BCC0BA32BCD0B6C
:10075000A32B003083120313A9000030A80000303F
:10076000A7001030A6000330AA000A128A15152728
:100770000A128A11003A031DBE2BBF2B9B2B83123A
:10078000031388151A3083120313CD005E30CC009A
:100790006D30CB00CB0BCA2BCC0BCA2BCD0BCA2B8D
:1007A000D12B831203138811003083120313C50069
:1007B0000030C4000030C3000430C200C601C701CD
:1007C0000830C8006530C900CA01CA0A0A128A1571
:1007D00050260A128A111A3083120313CD005E309C
:1007E000CC006D30CB00CB0BF32BCC0BF32BCD0B14
:1007F000F32BFA2B83120313DC010A128A15072646
:100800000A128A11033A031D062C072CD42B4E30F2
:10081000FD005C300A128A151E260A128A110A127D
:100820008A157C250A128A11730883120313D900D2
:100830007208D8007108D7007008D600DA01DB0111
:10084000602C0530831203135606570458045904CC
:10085000031D2B2C2C2C582C831203135A084E3EAC
:100860008400723083130006031D372C382C582C5B
:100870008815033083120313CD008A30CC00553025
:10088000CB00CB0B412CCC0B412CCD0B412C83123C
:1008900003138811033083120313CD008A30CC0078
:1008A0005530CB00CB0B522CCC0B522CCD0B522CF9
:1008B000013083120313DA070318DB0A0030DB0769
:1008C0005B08803ACB0080304B02031D692C5C082A
:1008D0005A02031C6C2C6D2C212CD42B0A128A1169
:1008E0000028F60083120313081076080A128A15EE
:1008F00094250A128A11FC017C08773E84000A12B2
:100900008A1587250A128A1180000130FF007F08AE
:10091000FC0704307C02031C8E2C8F2C7C2C780866
:1009200083120313A00005300310A00CFF3E031D2B
:10093000942C7708A100A2010310A10DA20D0310B1
:10094000A10DA20D0310A10DA20D20082107A300E7
:100950000030031801302207A4002308A500240852
:10096000A6000030A61BFF30A700A8007108840075
:10097000250883138000840A26088000840A27083B
:100980008000840A28088000720884008001F81D15
:10099000CA2CCB2C7E2D78080339A000A101A2011E
:1009A000A301710884000008A400840A0008A500BF
:1009B000840A0008A600840A0008A7000230031079
:1009C000A40DA50DA60DA70DFF3E031DDF2C2408C9
:1009D000A00725080318250FEE2CEF2CA1072608E9
:1009E0000318260FF42CF52CA20727080318270A52
:1009F000A3077108840020088000840A2108800071
:100A0000840A22088000840A230880007908A00054
:100A1000A101A201A301710884000008A400840AB6
:100A20000008A500840A0008A600840A0008A700A0
:100A300008300310A40DA50DA60DA70DFF3E031D44
:100A4000192D2408A00725080318250F282D292D66
:100A5000A10726080318260F2E2D2F2DA2072708E1
:100A60000318270AA3077108840020088000840A5D
:100A700021088000840A22088000840A230880005C
:100A80007A08A000A101A201A30171088400000856
:100A9000A400840A0008A500840A0008A600840AAD
:100AA0000008A70008300310A40DA50DA60DA70D82
:100AB000FF3E031D532D2408A00725080318250F0A
:100AC000622D632DA10726080318260F682D692DB6
:100AD000A20727080318270AA30771088400200823
:100AE0008000840A21088000840A22088000840A89
:100AF0002308800072088400013080000A128A15E1
:100B000087250A128A11FB00740884007B080F39BC
:100B100083138000730884007B1B8F2D912D01307F
:100B2000922D00308000FC01A72D7C0875078312F0
:100B30000313A000200884000A128A1587250A12D0
:100B40008A11831380000130FF007F08FC077408BE
:100B5000840000087C020318AE2DAF2DB52D08309F
:100B60007C02031CB42DB52D952D8312031308149C
:100B70000800F700F601F60AB22F3F30F800FF3008
:100B8000F9008730FA00C52F1F30F800FF30F90058
:100B90008730FA00C52F0F30F800FF30F90087309A
:100BA000FA00C52F0F30F800BA30F9000730FA000C
:100BB000C52F0F30F800F130F9008530FA00C52F4D
:100BC0000930F800BE30F9000730FA00C52F0730B1
:100BD000F800FF30F9008730FA00C52F0730F80021
:100BE000FA30F9008730FA00C52F0330F800FF30E3
:100BF000F9008730FA00C52F0330F800BE30F90045
:100C00000730FA00C52F0330F800AD30F900073087
:100C1000FA00C52F0330F800FA30F9008730FA00E7
:100C2000C52F0330F800F030F9008630FA00C52FE8
:100C3000F801F80AFA30F9008730FA00C52F413080
:100C4000F800F130F9008530FA00C52FF801F030D6
:100C5000F9008630FA00C52FF801A030F900043001
:100C6000FA00C52F4030F8009230F9000230FA0047
:100C7000C52FF801D030F9008230FA00C52FF601F7
:100C8000C52F7708F400F5017508003A0319492EBD
:100C90003F2E7408013A0319BD2D033A0319C42DE0
:100CA000013A0319CB2D073A0319D22D013A031942
:100CB000D92D033A0319E02D013A0319E72D0F3A14
:100CC0000319EE2D013A0319F52D033A0319FC2DF2
:100CD000013A0319032E073A03190A2E013A0319A0
:100CE000112E033A0319182E013A03191F2E1F3A29
:100CF0000319262E013A03192C2E033A0319322E1A
:100D0000013A0319392E3F2E0C30F800BF30F9009C
:100D10000530FA00C52F0B30F800B630F90004306A
:100D2000FA00C52F0B30F800AC30F9000330FA00A0
:100D3000C52F0C30F800A430F9000230FA00C52F9E
:100D40000930F800A430F9000330FA00C52F05304F
:100D5000F800B630F9000430FA00C52F0430F8006E
:100D6000A430F9000330FA00C52F0330F800B53085
:100D7000F9000330FA00C52F0230F800BE30F90048
:100D80000430FA00C52F0230F800B630F900043004
:100D9000FA00C52FF801F80ABF30F9000630FA0052
:100DA000C52FF801F80AA430F9000330FA00C52F66
:100DB000F801BF30F9000630FA00C52FF8019B306A
:100DC000F9000230FA00C52FF8019230F900FA015B
:100DD000FA0AC52FF8018830F900E72E7708F400E9
:100DE000F5017508003A0319F62E3F2E7408033AF0
:100DF0000319842E073A03198B2E013A0319922EF8
:100E0000033A0319992E013A0319A02E0F3A031938
:100E1000A72E013A0319AE2E033A0319B52E013A53
:100E20000319BC2E073A0319C32E013A0319CA2E1F
:100E3000033A0319D12E013A0319D82E1F3A031988
:100E4000DE2E013A0319E42E023A0319EA2E3F2E50
:100E50001F30F800BF30F9000730FA00C52F0F30FF
:100E6000F800BF30F9000730FA00C52F0730F8004E
:100E7000BF30F9000730FA00C52F0730F800A43062
:100E8000F9000430FA00C52F0330F800BF30F90034
:100E90000730FA00C52F0330F800B430F9000630EF
:100EA000FA00C52FF801F80ABF30F9000730FA0040
:100EB000C52FF801F80AB430F9000630FA00C52F42
:100EC000F801F80AB130F9000530FA00C52FF80131
:100ED000B430F900DB2EF801B130F9000530FA002A
:100EE000C52FF8019030F900E12EF8018030F900AB
:100EF000E72EF8018030F900FA01C52F7708F400D9
:100F0000F5017508003A0319862F3F2E7408013A3F
:100F10000319282F033A03192F2F013A0319362FEB
:100F2000063A03193D2F023A0319442F0F3A0319C9
:100F30004B2F013A0319522F053A0319592F013A41
:100F40000319602F033A0319672F013A03196B2F16
:100F50001F3A0319712F023A0319752F013A031929
:100F6000792F3F2E7308F400F5017508003A031934
:100F7000BA2F3F2E7408013A0319412E033A031980
:100F8000EE2E013A03197E2F3F2E76080319C92F42
:100F9000CA2FE42F7808F1002A300A128A15362663
:100FA0000A128A117908F10029300A128A153626A8
:100FB0000A128A117A08F10028300A128A15362698
:100FC0000A128A110030E52F0130080083136D30BA
:100FD000FD000D30FE007430FF00653084000A1201
:100FE0008A15CE250A128A11DD01DE01DF01E0013A
:100FF000E101E201E301E40183010A128A118F2B6E
:101AD8000E300A128A156A260A128A15E039080099
:101AE8000134013402340334003405340634073435
:101AF800831203136208F3006108F2006008F10022
:101B08005F08F00008008312031393018316031380
:101B1800141C8F2D902D8A2D83120313130808008F
:101B2800F0007008831203139300941F9C2D9D2DC1
:101B38009E2DA42D83160313141CA32DA42D9E2DB6
:101B4800080083120313A000203020060319AD2DCE
:101B5800AE2DB02D2008DE0020080A128A110421BB
:101B68000A128A150800F300831203130810730879
:101B78000A128A15DB260A128A150A128A15942572
:101B88000A128A1583120313081408007E088A00B3
:101B98007F0882000A128A15CA250A128A1580004F
:101BA800840A04087D0603190034FF0A0319FE0A93
:101BB800CE2D831203130810A0300A128A1594251B
:101BC8000A128A150A128A1587250A128A15F1003F
:101BD80083120313081471080800831203130810F2
:101BE800C0300A128A1594250A128A158312031323
:101BF80008144130F200EE30F100F10B012EF20B27
:101C0800012E000008000A128A15DD250A128A151D
:101C1800F40074080339031D122E132E182E0430F5
:101C2800F2000030F3001C2E0330F2000030F30005
:101C38007208080083120313B0005F30A9006430F3
:101C4800AA006330AB003008AC007D08AD000A1272
:101C58008A1553270A128A150A128A1154200A1261
:101C68008A150800F20083120313081002300A12C2
:101C78008A1594250A128A1572080A128A1594255B
:101C88000A128A1571080A128A1594250A128A15E9
:101C98008312031308140800831203134508B500C0
:101CA8004408B4004308B3004208B2004608B6002E
:101CB8004708B7004808B8004908B9004A08BA00F8
:101CC8000A128A11E9220A128A150800F100831201
:101CD8000313081003300A128A1594250A128A156C
:101CE80071080A128A1594250A128A150A128A1589
:101CF80087250A128A15F200831203130814720842
:101D08000800F2008D2E3030A02E4030A02E50302A
:101D1800A02E7208F000F1017108003A0319952EFF
:101D28008B2E7008003A0319872E013A0319892E61
:101D3800033A03198B2E8B2E0800F200A92E0430CB
:101D4800BD2E0830BD2E1030BD2E7208F000F101F6
:101D58007108003A0319B12EBC2E7008003A031915
:101D6800A32E013A0319A52E033A0319A72EBC2E58
:101D780000300800F200C62E0430DA2E1030DA2EB9
:101D88004030DA2E7208F000F1017108003A0319A8
:101D9800CE2ED92E7008003A0319C02E013A031925
:101DA800C22E033A0319C42ED92EFF300800F200C0
:101DB800E32E8130F72E8230F72E8430F72E72080A
:101DC800F000F1017108003A0319EB2EF62E7008A5
:101DD800313A0319DD2E703A0319DF2E103A031930
:101DE800E12EF62E00300800F200002F4030142FAC
:101DF8004230142F4430142F7208F000F10171089A
:101E0800003A0319082F132F7008313A0319FA2ED4
:101E1800703A0319FC2E103A0319FE2E132F0030C6
:101E28000800F0018030F10000300A128A11A82061
:101E38000A128A15831203132A08A10026080A1217
:101E48008A1159220A128A1583120313AB002B0830
:101E5800031D2F2F312F0130322F00300800F500DD
:101E680083120313081005300A128A1594250A12E2
:101E78008A1575080A128A1594250A128A15730894
:101E88000A128A1594250A128A1574080A128A15E4
:101E980094250A128A1583120313081408000A12DB
:101EA8008A15DD250A128A15AB39F800F81B5D2F53
:101EB8005E2F612FF201F301652F1030F200003020
:101EC800F300F81A682F692F6C2FF401F501702FB1
:101ED8000830F4000030F500F819732F742F772FAD
:101EE800F601F7017B2F0430F6000030F700780880
:101EF8000339760474047204F80078080800FB00BB
:101F0800F801F901E030F3007B08F4000F300A1201
:101F18008A1533270A128A150E300A128A156A267C
:101F28000A128A15FA007A08E0397B06031D9D2FEC
:101F38009E2FA02F0030BE2F7908803AFF008030F6
:101F48007F02031DA92FC9307802031CAC2FAD2FC7
:101F5800AF2F0130BE2F0730F7007D30F600F60BAB
:101F6800B32FF70BB32F0130F8070318F90A003025
:101F7800F907862F08003030F3004030F400503065
:101F8800F500F601F10173080A128A1536260A12BD
:101F98008A15F10174080A128A1536260A128A155A
:101FA800F10175080A128A1536260A128A150130B7
:101FB800FF007F08F3070130FF007F08F4070130B6
:101FC800FF007F08F5070130FF007F08F6070E3095
:101FD8007602031CF02FF12FC62FF10160300A1290
:101FE8008A1536260A128A15F10170300A128A15E6
:081FF80036260A128A150800C2
:02400E007A3FF7
:00000001FF
