:060000000A128A11E62F2E
:10000A0083120313930183160313141C0D280E285D
:10001A0008288312031313080800F5008312031338
:10002A00081005300A128A15B5250A128A117508B0
:10003A000A128A15B5250A128A1173080A128A1534
:10004A00B5250A128A1174080A128A15B5250A12E8
:10005A008A118312031308140800F7000A128A157A
:10006A00FE250A128A115439F60077088400831390
:10007A00800154307606031D43284428462802305E
:10008A007B28F801742878080A128A15DF260A12D2
:10009A008A117605031D52285328702878080A12F7
:1000AA008A15A6260A128A11013EFF0077088400E3
:1000BA007F088313800078080A128A15C2260A125A
:1000CA008A11F300F4012C300A128A1112200A1242
:1000DA008A1100307B280130FF007F08F8070330BF
:1000EA007802031C79287A284828442808008312B1
:1000FA000313AE000430AF002E1C842885289928EB
:10010A002908F1002A08F2002B08F3002C08F40051
:10011A002D08F50090300A128A1171240A128A11E8
:10012A0083120313AF01AE28AE1C9C289D28AE286B
:10013A002908F1002A08F2002B08F3002C08F40021
:10014A002D08F50094300A128A1171240A128A11B4
:10015A0095282F08031DB228B328CA282B08840023
:10016A0083130008E3002A0884000008E400290831
:10017A0084000008DF00840A0008E000840A0008FE
:10018A00E100840A0008E200CE282C0884008313C8
:10019A0080012F080800F4008316031394018312C8
:1001AA00031394017408FF007F0894047118DE2871
:1001BA00E128831603139417F728831603131417D9
:1001CA0083120313141216298316031314178312A6
:1001DA000313141616298316031314138312031315
:1001EA00141616297008F200F3017308003A03196D
:1001FA00FF2816297208003A0319E228023A03195D
:10020A00E928013A0319F0281629831603138516DB
:10021A00831603138715941326298316031387114C
:10022A0026297408F200F3017308003A03191E29FB
:10023A0012297208043A03190A29013A03190D29E5
:10024A001229871207168312031394160800FB005B
:10025A000A128A159A250A128A11203A031D36298A
:10026A003729792920307B0603193C293D29792928
:10027A002B300A128A158B260A128A114039FC0081
:10028A007C08031D49294A2954294030F30040308B
:10029A00F4002B300A128A1112200A128A114030F5
:1002AA00F3004030F4002C300A128A1112200A128C
:1002BA008A1160300A128A1584270A128A11003AB2
:1002CA000319682969296B29013088297C08031DCB
:1002DA006F29702979294030F300F4012B300A1272
:1002EA008A1112200A128A114030F300F4012C30CC
:1002FA000A128A1112200A128A117B080A128A1516
:10030A0084270A128A110800F9007108FB00700894
:10031A00FA007903031D92299329DB297408033E05
:10032A0084007A08831380007408023E84007B08E4
:10033A0080007008F5007108F6007208F70073086B
:10034A00F80010300310F80CF70CF60CF50CFF3E11
:10035A00031DA7297608FB007508FA00740A8400B1
:10036A007A08033980007A081C39F5000230031034
:10037A00F50DFF3E031DBC290310750DFF00740A1D
:10038A0084007F088007740A84008015740884003A
:10039A007B08F6007A08F50005300310F60CF50C18
:1003AA00FF3E031DD22975088000032A74088400C1
:1003BA007B08F6007A08F5000310F60CF50C03101A
:1003CA00F60CF50C0310F60CF50C75088313800077
:1003DA00740A84007A080739F50004300310F50D11
:1003EA00FF3E031DF3290310750D80007408033EB8
:1003FA00840080017408023E840080010800831290
:10040A000313B00030080A128A1519270A128A1132
:10041A0083120313AA002508031D142A152A182A71
:10042A00A801A9011C2A4030A8000030A90026080A
:10043A002804AB002308F3002208F2002108F10087
:10044A002008F0002C30F40024080A128A118921AD
:10045A000A128A118312031308102A080A128A152B
:10046A00B5250A128A1183120313B10131082C3EF1
:10047A008400831300080A128A15B5250A128A1104
:10048A000130FF007F0883120313B10704303102E1
:10049A00031C502A512A3B2A2B080A128A15B52511
:1004AA000A128A1183120313B1016D2A3108270730
:1004BA00FC007C088400831300080A128A15B525FB
:1004CA000A128A110130FF007F0883120313B10751
:1004DA00260831020318722A732A792A083031024F
:1004EA00031C782A792A5B2A081430080A128A150A
:1004FA00D8250A128A11080083120313A3000A12CC
:10050A008A1512260A128A1180300A128A112C219F
:10051A000A128A1183120313A40024080319962AC3
:10052A00972AA52A0D3083120313A200FB30A100DB
:10053A00A10B9D2AA20B9D2A8312031324080C2BBC
:10054A000D3083120313A200FB30A100A10BAB2ACA
:10055A00A20BAB2A831203132008F30023080A1202
:10056A008A11B9250A128A11003A0319BD2ABE2A2C
:10057A00BF2A972A0D3083120313A200FB30A10071
:10058A00A10BC52AA20BC52A831203132408031D33
:10059A00CF2AD02A092B0A128A15BF270A128A11D2
:1005AA000330F1002B300A128A1557260A128A11D3
:1005BA006430F3000430F40060300A128A11122009
:1005CA000A128A116030F300F40170300A128A119B
:1005DA0012200A128A1100300A128A15C6250A1236
:1005EA008A1183120313A40024080319FD2AFE2A80
:1005FA00FF2A972A0D3083120313A200FB30A100B1
:10060A00A10B052BA20B052B831203132408080048
:10061A0083120313C001C1013508E2003408E10066
:10062A003308E0003208DF003608E4003708E30048
:10063A00400841040319222B232B2D2B0D30831242
:10064A000313BC00FB30BB00BB0B292BBC0B292BB3
:10065A003F300A128A1132200A128A1183120313B6
:10066A00BD000130C0070318C10A0030C1070230BB
:10067A003D06031D412B422B4B2B003041023230E9
:10068A0003194002031C4A2B4B2B1D2B3230400608
:10069A004104031D512B522B542B0630B02B350825
:1006AA00A3003408A2003308A1003208A0003608CB
:1006BA00A4003708A5003808A6003908A7003F0893
:1006CA000A128A1104220A128A11831203133A089F
:1006DA000319702B712BAF2BC001C10140084104D3
:1006EA000319782B792B832B0D3083120313BC004B
:1006FA00FB30BB00BB0B7F2BBC0B7F2B0130831263
:10070A000313C0070318C10A0030C1073F08FF3EA0
:10071A000A128A158B260A128A1183120313BE0043
:10072A003E080839BE003E0803199C2B9D2BA62BB8
:10073A0000304102323003194002031CA52BA62BBC
:10074A00732B323040064104031DAC2BAD2BAF2B6B
:10075A000730B02B00300800831603138811831268
:10076A00031388110A128A1593250A128A11C72BB4
:10077A00823083120313CC00DD30CB00CB0BC32BAA
:10078A00CC0BC32B003083120313A8000030A70040
:10079A000030A6001030A5000330A9000A128A15FD
:1007AA0036270A128A11003A031DDC2BDD2BBD2BDA
:1007BA00003083120313C5000030C4000030C300A8
:1007CA000430C200C601C7010830C8006530C9003C
:1007DA00CA01CA0A0A128A1571260A128A11063031
:1007EA0083120313CD001330CC00AD30CB00CB0BFA
:1007FA00FC2BCC0BFC2BCD0BFC2B83120313DC0143
:10080A000A128A1528260A128A11033A031D0E2C87
:10081A000F2CDD2B4E30FD005C300A128A153F2664
:10082A000A128A110A128A15AA250A128A1173084B
:10083A0083120313D9007208D8007108D700700810
:10084A00D600DA01DB01602C053083120313560649
:10085A00570458045904031D332C342C582C831282
:10086A0003135A084E3E8400723083130006031D98
:10087A003F2C402C582C8815823083120313CC004D
:10088A00DD30CB00CB0B472CCC0B472C8312031348
:10089A008811823083120313CC00DD30CB00CB0BDE
:1008AA00542CCC0B542C013083120313DA0703188F
:1008BA00DB0A0030DB075B08803ACB0080304B0252
:1008CA00031D692C5C085A02031C6C2C6D2C292C04
:1008DA00DD2B0A128A110028F6008312031308106E
:1008EA0076080A128A15B5250A128A11FC017C08B3
:1008FA00773E84000A128A1105200A128A118000A2
:10090A000130FF007F08FC0704307C02031C8E2C98
:10091A008F2C7C2C780883120313A0000530031057
:10092A00A00CFF3E031D942C7708A100A20103101E
:10093A00A10DA20D0310A10DA20D0310A10DA20D70
:10094A0020082107A3000030031801302207A40061
:10095A002308A5002408A6000030A61BFF30A70024
:10096A00A80071088400250883138000840A2608D9
:10097A008000840A27088000840A280880007208F8
:10098A0084008001F81DCA2CCB2C7E2D78080339EF
:10099A00A000A101A201A301710884000008A4001B
:1009AA00840A0008A500840A0008A600840A000830
:1009BA00A70002300310A40DA50DA60DA70DFF3E3A
:1009CA00031DDF2C2408A00725080318250FEE2C89
:1009DA00EF2CA10726080318260FF42CF52CA207E2
:1009EA0027080318270AA307710884002008800033
:1009FA00840A21088000840A22088000840A2308C5
:100A0A0080007908A000A101A201A3017108840055
:100A1A000008A400840A0008A500840A0008A600A9
:100A2A00840A0008A70008300310A40DA50DA60D1E
:100A3A00A70DFF3E031D192D2408A007250803183A
:100A4A00250F282D292DA10726080318260F2E2D3C
:100A5A002F2DA20727080318270AA3077108840065
:100A6A0020088000840A21088000840A2208800065
:100A7A00840A230880007A08A000A101A201A30128
:100A8A00710884000008A400840A0008A500840AEA
:100A9A000008A600840A0008A70008300310A40D65
:100AAA00A50DA60DA70DFF3E031D532D2408A00773
:100ABA0025080318250F622D632DA10726080318A0
:100ACA00260F682D692DA20727080318270AA307EE
:100ADA007108840020088000840A21088000840AA2
:100AEA0022088000840A23088000720884000130EA
:100AFA0080000A128A1105200A128A11FB00740862
:100B0A0084007B080F3983138000730884007B1BE1
:100B1A008F2D912D0130922D00308000FC01A72DE0
:100B2A007C08750783120313A000200884000A12A8
:100B3A008A1105200A128A11831380000130FF00EE
:100B4A007F08FC077408840000087C020318AE2D95
:100B5A00AF2DB52D08307C02031CB42DB52D952D73
:100B6A008312031308140800F700F601F60AB22FDD
:100B7A003F30F800FF30F9008730FA00C52F1F30E8
:100B8A00F800FF30F9008730FA00C52F0F30F8005F
:100B9A00FF30F9008730FA00C52F0F30F800BA305D
:100BAA00F9000730FA00C52F0F30F800F130F900CC
:100BBA008530FA00C52F0930F800BE30F900073039
:100BCA00FA00C52F0730F800FF30F9008730FA0025
:100BDA00C52F0730F800FA30F9008730FA00C52F20
:100BEA000330F800FF30F9008730FA00C52F0330D0
:100BFA00F800BE30F9000730FA00C52F0330F800BC
:100C0A00AD30F9000730FA00C52F0330F800FA308A
:100C1A00F9008730FA00C52F0330F800F030F900E8
:100C2A008630FA00C52FF801F80AFA30F900873041
:100C3A00FA00C52F4130F800F130F9008530FA008A
:100C4A00C52FF801F030F9008630FA00C52FF801F7
:100C5A00A030F9000430FA00C52F4030F800923075
:100C6A00F9000230FA00C52FF801D030F9008230BD
:100C7A00FA00C52FF601C52F7708F400F5017508AB
:100C8A00003A0319492E3F2E7408013A0319BD2D63
:100C9A00033A0319C42D013A0319CB2D073A031954
:100CAA00D22D013A0319D92D033A0319E02D013A3D
:100CBA000319E72D0F3A0319EE2D013A0319F52D01
:100CCA00033A0319FC2D013A0319032E073A0319B3
:100CDA000A2E013A0319112E033A0319182E013A62
:100CEA0003191F2E1F3A0319262E013A03192C2E17
:100CFA00033A0319322E013A0319392E3F2E0C30CA
:100D0A00F800BF30F9000530FA00C52F0B30F800A3
:100D1A00B630F9000430FA00C52F0B30F800AC30B9
:100D2A00F9000330FA00C52F0C30F800A430F9009E
:100D3A000230FA00C52F0930F800A430F900033058
:100D4A00FA00C52F0530F800B630F9000430FA0071
:100D5A00C52F0430F800A430F9000330FA00C52F7B
:100D6A000330F800B530F9000330FA00C52F02301D
:100D7A00F800BE30F9000430FA00C52F0230F8003E
:100D8A00B630F9000430FA00C52FF801F80ABF306E
:100D9A00F9000630FA00C52FF801F80AA430F90064
:100DAA000330FA00C52FF801BF30F9000630FA0007
:100DBA00C52FF8019B30F9000230FA00C52FF8015F
:100DCA009230F900FA01FA0AC52FF8018830F900C1
:100DDA00E72E7708F400F5017508003A0319F62E94
:100DEA003F2E7408033A0319842E073A03198B2EEF
:100DFA00013A0319922E033A0319992E013A03195B
:100E0A00A02E0F3A0319A72E013A0319AE2E033A60
:100E1A000319B52E013A0319BC2E073A0319C32E3A
:100E2A00013A0319CA2E033A0319D12E013A0319BA
:100E3A00D82E1F3A0319DE2E013A0319E42E023A7C
:100E4A000319EA2E3F2E1F30F800BF30F900073091
:100E5A00FA00C52F0F30F800BF30F9000730FA004A
:100E6A00C52F0730F800BF30F9000730FA00C52F48
:100E7A000730F800A430F9000430FA00C52F033017
:100E8A00F800BF30F9000730FA00C52F0330F80028
:100E9A00B430F9000630FA00C52FF801F80ABF305D
:100EAA00F9000730FA00C52FF801F80AB430F90042
:100EBA000630FA00C52FF801F80AB130F9000530FA
:100ECA00FA00C52FF801B430F900DB2EF801B13071
:100EDA00F9000530FA00C52FF8019030F900E12E2B
:100EEA00F8018030F900E72EF8018030F900FA01A4
:100EFA00C52F7708F400F5017508003A0319862F03
:100F0A003F2E7408013A0319282F033A03192F2F89
:100F1A00013A0319362F063A03193D2F023A0319EB
:100F2A00442F0F3A03194B2F013A0319522F053A4E
:100F3A000319592F013A0319602F033A0319672F2E
:100F4A00013A03196B2F1F3A0319712F023A031939
:100F5A00752F013A0319792F3F2E7308F400F50112
:100F6A007508003A0319BA2F3F2E7408013A03197B
:100F7A00412E033A0319EE2E013A03197E2F3F2E12
:100F8A0076080319C92FCA2FE42F7808F1002A30EE
:100F9A000A128A1557260A128A117908F10029308D
:100FAA000A128A1557260A128A117A08F10028307D
:100FBA000A128A1557260A128A110030E52F0130C3
:100FCA00080083136D30FD000D30FE00A230FF00D3
:100FDA00653084000A128A15EF250A128A11DD018A
:100FEA00DE01DF01E001E101E201E301E401830145
:060FFA000A128A11B12B5E
:101B260083160313081083120313081408000E30DB
:101B36000A128A158B260A128A15E0390800013422
:101B46000134023403340034053406340734831276
:101B560003136208F3006108F2006008F1005F08F1
:101B6600F0000800F0007008831203139300941F1E
:101B7600BD2DBE2DBF2DC52D83160313141CC42DDC
:101B8600C52DBF2D0800FD0020307D060319CC2D84
:101B9600CD2DD12D7D0883120313DE007D080A1298
:101BA6008A112C210A128A150800F30083120313E6
:101BB600081073080A128A15FC260A128A150A12D8
:101BC6008A15B5250A128A1583120313081408000C
:101BD6007E088A007F0882000A128A15EB250A12FF
:101BE6008A158000840A04087D0603190034FF0A5A
:101BF6000319FE0AEF2D831203130810A0300A12F0
:101C06008A15B5250A128A150A128A1105200A12A2
:101C16008A15F10083120313081471080800831251
:101C260003130810C0300A128A15B5250A128A1540
:101C36008312031308140D30F200FB30F100F10B90
:101C4600222EF20B222E272E08000A128A15FE25B6
:101C56000A128A15F40074080339031D332E342E34
:101C6600392E0430F2000030F3003D2E0330F2002E
:101C76000030F3007208080083120313B0005F30CF
:101C8600A9006430AA006330AB003008AC007D08C0
:101C9600AD000A128A1554270A128A150A128A11E9
:101CA6007C200A128A150800F2008312031308101A
:101CB60002300A128A15B5250A128A1572080A1206
:101CC6008A15B5250A128A1571080A128A15B525CC
:101CD6000A128A15831203130814080083120313C9
:101CE6004508B5004408B4004308B3004208B200F2
:101CF6004608B6004708B7004808B8004908B900C2
:101D06004A08BA000A128A110D230A128A15080017
:101D1600F10083120313081003300A128A15B52541
:101D26000A128A1571080A128A15B5250A128A1529
:101D36000A128A1105200A128A15F2008312031369
:101D4600081472080800F200AE2E3030C12E403062
:101D5600C12E5030C12E7208F000F1017108003A10
:101D66000319B62EAC2E7008003A0319A82E013AB4
:101D76000319AA2E033A0319AC2EAC2E0800F20062
:101D8600CA2E0430DE2E0830DE2E1030DE2E72080B
:101D9600F000F1017108003A0319D22EDD2E700809
:101DA600003A0319C42E013A0319C62E033A031941
:101DB600C82EDD2E00300800F200E72E0430FB2E80
:101DC6001030FB2E4030FB2E7208F000F101710836
:101DD600003A0319EF2EFA2E7008003A0319E12E85
:101DE600013A0319E32E033A0319E52EFA2EFF30C2
:101DF6000800F200042F8130182F8230182F84300B
:101E0600182F7208F000F1017108003A03190C2F1F
:101E1600172F7008313A0319FE2E703A0319002F56
:101E2600103A0319022F172F00300800F200212F55
:101E36004030352F4230352F4430352F7208F000B0
:101E4600F1017108003A0319292F342F7008313A2D
:101E560003191B2F703A03191D2F103A03191F2F50
:101E6600342F00300800F0018030F10000300A12F3
:101E76008A11D0200A128A15831203132908A0009A
:101E860025080A128A1181220A128A15831203135F
:101E9600AA002A08031D502F522F0130532F00305D
:101EA60008000A128A15FE250A128A15AB39F800AF
:101EB600F81B5E2F5F2F622FF201F301662F1030A1
:101EC600F2000030F300F81A692F6A2F6D2FF40123
:101ED600F501712F0830F4000030F500F819742F61
:101EE600752F782FF601F7017C2F0430F6000030AD
:101EF600F70078080339760474047204F800780849
:101F06000800FA00F701F801E030F3007A08F4005F
:101F16000F300A128A1112200A128A150E300A127E
:101F26008A158B260A128A15F9007908E0397A068D
:101F3600031D9E2F9F2FA12F0030BE2F7808803AB9
:101F4600FF0080307F02031DAA2FC9307702031CD1
:101F5600AD2FAE2FB02F0130BE2FC730F600B32FF6
:101F6600F60BB22FB62FB72F0130F7070318F80A72
:101F76000030F807872F08003030F3004030F400B7
:101F86005030F500F601F10173080A128A1557263A
:101F96000A128A15F10174080A128A1557260A12BE
:101FA6008A15F10175080A128A1557260A128A152A
:101FB6000130FF007F08F3070130FF007F08F407B8
:101FC6000130FF007F08F5070130FF007F08F607A4
:101FD6000E307602031CF02FF12FC62FF101603070
:101FE6000A128A1557260A128A15F10170300A124A
:0A1FF6008A1557260A128A15080002
:02400E00FA3F77
:00000001FF
